:08000000AA3D0400000000000D
:0400A0000611000045
:100400005420EF00C30A2000830150000500310092
:10041000C3212000008041001040BA000160EF00BD
:1004200000000600C021200083814100808141003E
:100430001380BA000000060000C100008140C10026
:1004400001C081008041400001C001008041C00026
:1004500000C180008140410001C000008041C10016
:1004600000C181008140400000C100008140C10006
:1004700001C081008041400001C001008041C000F6
:1004800000C180008140410000C100008140C100E6
:1004900001C081008041400000C101008140C000D6
:1004A00001C080008041410001C001008041C000C6
:1004B00000C180008140410001C000008041C100B6
:1004C00000C181008140400000C101008140C000A6
:1004D00001C080008041410000C100008140C10096
:1004E00001C081008041400001C000008041C10086
:1004F00000C181008140400000C101008140C00076
:1005000001C080008041410001C001008041C00065
:1005100000C180008140410001C000008041C10055
:1005200000C181008140400000C100008140C10045
:1005300001C081008041400001C001008041C00035
:1005400000C180008140410000C100008140C10025
:1005500001C081008041400000C101008140C00015
:1005600001C080008041410001C001008041C00005
:1005700000C180008140410000C100008140C100F5
:1005800001C081008041400001C0000080410000A6
:100590005420EF00C30A2000830150000500310001
:1005A000432E2000008041001040BA000160EF009F
:1005B00000000600402E2000838141008081410020
:1005C0001380BA000000060000C07D00C101BD001C
:1005D000C303BC0002C27C00C606B40007C7740097
:1005E00005C57500C404B500CC0C77000DCDB7006F
:1005F0000FCFB600CE0E76000ACA7200CB0BB20047
:10060000C909B30008C87300D818B10019D971001E
:100610001BDB7000DA1AB0001EDE5000DF1F9000F6
:10062000DD1D91001CDC510014D49300D51553003E
:10063000D717520016D69200D212960013D3560046
:1006400011D15700D0109700F030550031F19500CE
:1006500033F39400F232540036F69C00F7375C0016
:10066000F5355D0034F49D003CFC5F00FD3D9F00CE
:10067000FF3F9E003EFE5E00FA3A5A003BFB9A00A6
:1006800039F99B00F8385B0028E89900E9295900FE
:10069000EB2B58002AEA9800EE2E88002FEF480036
:1006A0002DED4900EC2C8900E4244B0025E58B005E
:1006B00027E78A00E6264A0022E24E00E3238E0066
:1006C000E1218F0020E04F00A0608D0061A14D006E
:1006D00063A34C00A2628C0066A64400A767840056
:1006E000A565850064A445006CAC8700AD6D47002E
:1006F000AF6F46006EAE8600AA6A82006BAB420006
:1007000069A94300A868830078B84100B9798100DD
:10071000BB7B80007ABA4000BE7E00007FBF000035
:100720005420EF00C3392000008041001040BA007F
:100730000160EF0000000600506F000077650000C8
:10074000722000004F6E0000204D00006F6400001A
:10075000756C000065200000534900004D2000002A
:100760004D390000350D00000A0000005420EF0054
:10077000233C2000008041001040BA000160EF00DF
:10078000000006004F4B0000000000005420EF0066
:10079000233D2000008041001040BA000160EF00BE
:1007A0000000060045520000524F000052000000B9
:1007B0005420EF00433E2000008041001040BA006A
:1007C0000160EF00000006002E0000005420EF0042
:1007D000233F2000008041001040BA000160EF007C
:1007E00000000600434F00004E4E0000454300004D
:1007F0005420000046410000494C00000000000069
:100800005420EF00C3402000008041001040BA0097
:100810000160EF0000000600434F00004E4E000054
:1008200045430000542000004F4B00000000000032
:100830005420EF0043422000008041001040BA00E5
:100840000160EF000000060054430000502000004B
:10085000436F00006E6E0000656300007465000069
:10086000640D00000A0000005420EF000344200043
:10087000008041001040BA000160EF000000060057
:10088000434F00004E4E000045430000540D000051
:100890000A0000005420EF00634520000080410062
:1008A0001040BA000160EF0000000600434C000059
:1008B0004F53000045440000000000005420EF00AA
:1008C000A3462000008041001040BA000160EF0004
:1008D000000006005443000050200000446900005E
:1008E000736300006F6E00006E65000063740000AB
:1008F000656400000D0A0000000000005420EF00B5
:10090000A3482000008041001040BA000160EF00C1
:10091000000006003E0000005420EF008349200044
:10092000008041001040BA000160EF0000000600A6
:10093000636F00006E740000656E0000742000009C
:100940006D6500007373000061670000653A000088
:100950000D0A0000000000005420EF00834B20002F
:10096000008041001040BA000160EF000000060066
:10097000204900004E49000054490000414C00004D
:10098000000000005420EF00E34C200000804100F4
:100990001040BA000160EF00000006002053000084
:1009A0005441000052540000000000005420EF00A9
:1009B000234E2000008041001040BA000160EF008B
:1009C00000000600204300004F4E00004649000092
:1009D000470000005420EF00634F200000804100DA
:1009E0001040BA000160EF00000006002047000040
:1009F000505200005341000043540000000000002A
:100A00005420EF00C3502000008041001040BA0085
:100A10000160EF0000000600205300005441000078
:100A200054550000530000005420EF0003522000F2
:100A3000008041001040BA000160EF000000060095
:100A4000204300004C4F0000534500000000000010
:100A50005420EF0043532000008041001040BA00B2
:100A60000160EF0000000600544300005020000029
:100A7000434F00004E4E0000454300005449000023
:100A80004E470000000000005420EF0003552000F6
:100A9000008041001040BA000160EF000000060035
:100AA000204300004F4E00004E450000435400001C
:100AB000204F00004B0000005420EF008356200020
:100AC000008041001040BA000160EF000000060005
:100AD000204300004F4E00004E45000043540000EC
:100AE00020460000414900004C0000005420EF0067
:100AF00023582000008041001040BA000160EF0040
:100B00000000060020500000445000002044000077
:100B10004541000043540000000000005420EF0055
:100B2000A3592000008041001040BA000160EF008E
:100B300000000600696E000070750000745300002C
:100B400074720000696E0000673A00002025000002
:100B5000640D00000A0000005420EF00835B2000B9
:100B6000008041001040BA000160EF000000060064
:100B700072650000706F00006E7300006520000059
:100B8000434F00004E4E0000414300004B3A00002E
:100B900020250000640D00000A0000005420EF0032
:100BA000A35D2000008041001040BA000160EF000A
:100BB00000000600696E00007075000074530000AC
:100BC00074720000696E0000675B0000305D000019
:100BD0003A200000256400000D0A0000000000001B
:100BE0005420EF00C35F2000008041001040BA0095
:100BF0000160EF0000000600696E000070750000E3
:100C00007453000074720000696E0000675B00009E
:100C1000315D00003A200000256400000D0A00004C
:100C2000000000005420EF00E3612000008041003C
:100C30001040BA000160EF0000000600726500007D
:100C4000706F00006E7300006520000050550000BA
:100C5000424C000049530000483A000020250000A3
:100C6000640D00000A0000005420EF00036420001F
:100C7000008041001040BA000160EF000000060053
:100C8000746F000070690000634C0000656E000026
:100C900067740000683A000020250000640D000021
:100CA0000A0000005420EF00E365200000804100AE
:100CB0001040BA000160EF0000000600746F0000F1
:100CC00070690000632000006C6500006E67000022
:100CD0007468000020690000732000006C6100004F
:100CE00072670000650D00000A0000005420EF004C
:100CF00023682000008041001040BA000160EF002E
:100D000000000600745F0000747000006F6900004E
:100D1000633100003A200000257300000D0A000036
:100D2000000000005420EF00E36920000080410033
:100D30001040BA000160EF00000006006D65000081
:100D4000737300006167000065490000443A0000C9
:100D500020250000640D00000A0000005420EF0070
:100D6000A36B2000008041001040BA000160EF003A
:100D700000000600745F00006D65000073730000E2
:100D800061670000653200003A2000002573000012
:100D90000D0A0000000000005420EF00836D2000C9
:100DA000008041001040BA000160EF000000060022
:100DB000516F0000533A000020250000640D000030
:100DC0000A0000005420EF00E36E20000080410084
:100DD0001040BA000160EF00000006006D650000E1
:100DE000737300006167000065490000443A000029
:100DF00020250000730D00000A0000005420EF00C1
:100E0000A3702000008041001040BA000160EF0094
:100E10000000060072650000737000006F6E000035
:100E2000736500002050000055420000414300005F
:100E30004B3A000020250000640D00000A0000006D
:100E40005420EF00C3722000008041001040BA001F
:100E50000160EF000000060070610000636B00009D
:100E60006574000020490000443A0000202500007D
:100E7000640D00000A0000005420EF00837420007D
:100E8000008041001040BA000160EF000000060041
:100E900072650000737000006F6E000073650000E3
:100EA00020500000554300004F4D0000503A000014
:100EB00020250000640D00000A0000005420EF000F
:100EC000A3762000008041001040BA000160EF00CE
:100ED0000000060072650000737000006F6E000075
:100EE000736500002053000055420000414300009C
:100EF0004B2000003A200000256400000D0A00008D
:100F0000000000005420EF00E37820000080410042
:100F10001040BA000160EF0000000600726500009A
:100F2000706F00006E73000065200000554E0000D9
:100F30005355000042410000434B00003A2000009E
:100F4000256400000D0A0000000000005420EF009E
:100F5000237B2000008041001040BA000160EF00B8
:100F600000000600696E00007075000074530000F8
:100F700074720000696E0000675B0000325D000063
:100F80003A200000256400000D0A00000000000067
:100F90005420EF00437D2000008041001040BA0043
:100FA0000160EF0000000600696E0000707500002F
:100FB0007453000074720000696E0000675B0000EB
:100FC000335D00003A200000256400000D0A000097
:100FD000000000005420EF00637F200000804100EB
:100FE0001040BA000160EF000000060072650000CA
:100FF000706F00006E730000652000005055000007
:1010000042520000454300003A20000025640000E1
:101010000D0A0000000000005420EF008381200032
:10102000008041001040BA000160EF00000006009F
:1010300072650000706F00006E7300006520000094
:101040005055000042520000454C00003A2000007C
:10105000256400000D0A0000000000005420EF008D
:10106000A3832000008041001040BA000160EF001F
:101070000000060072650000706F00006E730000D3
:1010800065200000504900004E4700005245000016
:101090005155000045530000543A0000202500003F
:1010A000640D00000A0000005420EF0003862000B9
:1010B000008041001040BA000160EF00000006000F
:1010C00044690000736300006F6E00006E650000ED
:1010D00063740000696E0000672E00002E2E000071
:1010E0000D0A0000000000005420EF0003882000DB
:1010F000008041001040BA000160EF0000000600CF
:1011000072650000737000006F6E00007365000070
:1011100020500000494E0000475200004553000097
:10112000504F00004E530000453A000020250000BB
:10113000640D00000A0000005420EF00838A2000A4
:10114000008041001040BA000160EF00000006007E
:10115000436F00006E6E00006563000074200000A5
:101160005265000074750000726E0000204300009C
:101170006F640000653A0000203000007825000010
:10118000327800000D0A0000000000005420EF003B
:10119000238D2000008041001040BA000160EF0064
:1011A00000000600436F00006E6E000065630000E3
:1011B000742000004163000063650000707400004B
:1011C000656400002E0D00000A0000005420EF00AE
:1011D000830220008301500005003100239020008D
:1011E000008041001040BA000160EF0000000600DE
:1011F0002090200083814100808141001380BA004B
:1012000000000600436F50006E6E720065636F0051
:10121000746974006F6E6F002052630065666F0022
:1012200075736C00656420002C20560072656500A3
:10123000617372006F6E73003A206900556E6F0023
:1012400061636E0063650D0070740A00616C0000DC
:10125000652000005420EF0023022000830150008D
:101260000500310063942000008041001040BA0066
:101270000160EF00000006006094200083814100BF
:10128000808141001380BA0000000600436F6600B1
:101290006E6E690065636500746972006F6E200090
:1012A000205252006566650075736A0065646500CA
:1012B0002C20630072657400617365006F6E6400BA
:1012C0003A200D0049640A00656E00007469000050
:1012D0005420EF002302200083015000050031005C
:1012E00043982000008041001040BA000160EF00E8
:1012F0000000060040982000838141008081410069
:101300001380BA0000000600436F20006E6E550087
:1013100065636E00746961006F6E76002052610033
:101320006566690075736C00656461002C2062005D
:1013300072656C00617365006F6E0D003A200A00E3
:101340005365000072760000657200005420EF00C3
:10135000630220008301500005003100239C20001F
:10136000008041001040BA000160EF00000006005C
:10137000209C200083814100808141001380BA00BD
:1013800000000600436F61006E6E6D0065636500CE
:10139000746920006F6E6F00205266006566200041
:1013A00075735000656461002C20730072657300D2
:1013B000617377006F6E6F003A20720042616400C3
:1013C00064200D0055730A0065720000204E000075
:1013D0005420EF00E301200083015000050031009C
:1013E00043A02000008041001040BA000160EF00DF
:1013F0000000060040A02000838141008081410060
:101400001380BA0000000600436F74006E6E200067
:1014100065634100746975006F6E74002052680046
:1014200065666F0075737200656469002C207A0030
:1014300072656500617364006F6E00003A20000001
:101440004E6F00005420EF00E3A220000080410016
:101450001040BA000160EF00000006005265000075
:10146000736500007276000065640000206600006D
:101470006F72000020660000757400007572000035
:101480006520000075730000650D00000A00000073
:101490005420EF0043A52000008041001040BA0016
:1014A0000160EF0000000600536500006E6400005C
:1014B000204300006F6D00006D6100006E6400004D
:1014C0003A0000005420EF00E3A620000080410015
:1014D0001040BA000160EF000000060072650000D5
:1014E000737000006F6E00007365000020660000DE
:1014F000756E000063740000696F00006E3A0000B2
:10150000000000005420EF00E3A82000008041000C
:101510001040BA000160EF000000060053650000B3
:101520006E640000204C0000656E000067740000CF
:10153000683A000020250000640000005420EF00FD
:10154000A3AA2000008041001040BA000160EF0013
:1015500000000600536500006E640000204C00008F
:10156000656E00006774000068200000537400007E
:10157000726900006E6700003A20000025640000D8
:101580000D0A0000000000005420EF0003AD200011
:10159000008041001040BA000160EF00000006002A
:1015A000536500006E64000055540000463800008A
:1015B00053740000726900006E6700003A2000005A
:1015C000257300000D0A0000000000005420EF0009
:1015D00023AF2000008041001040BA000160EF00FE
:1015E0000000060070750000626C00006973000066
:1015F00068410000434B00003A200000000000005A
:101600005420EF00C3B02000008041001040BA0019
:101610000160EF000000060070750000626C0000C1
:101620006973000068520000454300003A20000042
:10163000000000005420EF0063B220000080410051
:101640001040BA000160EF00000006007075000055
:10165000626C00006973000068520000454C000095
:101660003A200000000000005420EF0003B42000E6
:10167000008041001040BA000160EF000000060049
:1016800070750000626C0000697300006843000020
:101690004F4D0000503A0000200000005420EF00A1
:1016A000A3B52000008041001040BA000160EF00A7
:1016B00000000600706900006E67000052650000BF
:1016C0007175000065730000743A0000200D000081
:1016D0000A0000005420EF0063B7200000804100A2
:1016E0001040BA000160EF00000006004D510000FC
:1016F00054540000205300005542000053430000A2
:1017000052490000424500003A200000000000005D
:101710005420EF0043B92000008041001040BA007F
:101720000160EF00000006004D510000545400001D
:1017300020500000554200004C4900005348000072
:101740003A200000000000005420EF0003BB2000FE
:10175000008041001040BA000160EF000000060068
:1017600050750000625400006F7000006963000053
:101770003A200000257300000D0A00000000000060
:101780005420EF00C3BC2000008041001040BA008C
:101790000160EF00000006004D650000737300005B
:1017A000616700006520000050750000626C000059
:1017B00069730000683A000020250000730D0000E6
:1017C0000A0000005420EF00E3BE2000008041002A
:1017D0001040BA000160EF0000000600436F0000F7
:1017E0006E6E0000656300007420000073650000E9
:1017F0006E6400000D0A0000000000005420EF009D
:10180000A3C02000008041001040BA000160EF003A
:1018100000000600436C0000696500006E74000063
:1018200020490000443A000020250000730D00000C
:101830000A0000005420EF0063C220000080410035
:101840001040BA000160EF00000006005769000078
:101850006C6C0000204600006C610000673A0000DC
:101860002030000078250000327800000D0A0000CA
:10187000000000005420EF0063C4200000804100FD
:101880001040BA000160EF00000006005573000030
:10189000657200004E6100006D650000204600008A
:1018A0006C610000673A00002030000078250000DD
:1018B000327800000D0A0000000000005420EF0004
:1018C000A3C62000008041001040BA000160EF0074
:1018D000000006004B65000065700000416C0000D0
:1018E0006976000065540000696D0000656F0000B6
:1018F000757400003A200000256400000D0A000005
:10190000000000005420EF00E3C8200000804100E8
:101910001040BA000160EF00000006002B2B000011
:101920002B0000005420EF00E3C92000008041009C
:101930001040BA000160EF0000000600536500008F
:101940006E640000696E00006720000041540000D2
:101950000D0A0000000000005420EF0083CB20009F
:10196000008041001040BA000160EF000000060056
:10197000415400000D0A0000000000005420EF0058
:10198000A3CC2000008041001040BA000160EF00AD
:101990000000060041540000453000000D0A000020
:1019A000000000005420EF00E3CD20000080410043
:1019B0001040BA000160EF00000006004154000032
:1019C0002B43000052450000473F00000D0A000075
:1019D000000000005420EF0063CF20000080410091
:1019E0001040BA000160EF00000006002B43000029
:1019F00052450000473A0000203000002C31000022
:101A0000000000005420EF00E3D0200000804100DF
:101A10001040BA000160EF000000060041540000D1
:101A20002B51000049460000474300004E5400007F
:101A30003D3000000D0A0000000000005420EF00BF
:101A4000A3D22000008041001040BA000160EF00E6
:101A500000000600415400002B51000049440000E2
:101A60004E530000495000003D3000000D0A0000B8
:101A7000000000005420EF0063D4200000804100EB
:101A80001040BA000160EF00000006004154000061
:101A90002B510000494E0000444900003D31000038
:101AA0000D0A0000000000005420EF0003D62000C3
:101AB000008041001040BA000160EF000000060005
:101AC000415400002B510000494D000055580000C2
:101AD0003D3000000D0A0000000000005420EF001F
:101AE000A3D72000008041001040BA000160EF0041
:101AF00000000600415400002B510000494D000039
:101B00004F440000453D0000310D00000A00000078
:101B10005420EF0043D92000008041001040BA005B
:101B20000160EF0000000600415400002B4300005C
:101B300047410000545400003F0D00000A0000001F
:101B40005420EF00C3DA2000008041001040BA00AA
:101B50000160EF00000006002B4300004741000039
:101B6000545400003A200000310000005420EF00DF
:101B700023DC2000008041001040BA000160EF002B
:101B800000000600415400002B43000047410000C4
:101B9000545400003D3100000D0A00000000000018
:101BA0005420EF00C3DD2000008041001040BA0047
:101BB0000160EF0000000600415400002B510000BE
:101BC0004953000054410000540D00000A00000079
:101BD0005420EF0043DF2000008041001040BA0095
:101BE0000160EF0000000600535400004154000063
:101BF000453A0000000000005420EF0083E0200080
:101C0000008041001040BA000160EF0000000600B3
:101C1000415400002B51000049520000454700008C
:101C200041500000503D0000224300004D4E000096
:101C300045540000220D00000A0000005420EF006F
:101C4000A3E22000008041001040BA000160EF00D4
:101C500000000600415400002B51000049410000E3
:101C6000435400000D0A0000000000005420EF0063
:101C700023E42000008041001040BA000160EF0022
:101C800000000600415400002B510000494C0000A8
:101C90004F430000495000000D0A00000000000002
:101CA0005420EF00C3E52000008041001040BA003E
:101CB0000160EF000000060031300000332E00000C
:101CC00032340000392E000031300000302E000088
:101CD00034380000000000005420EF0083E72000AB
:101CE000008041001040BA000160EF0000000600D3
:101CF0003138000038330000000000005420EF00AD
:101D0000A3E82000008041001040BA000160EF000D
:101D100000000600415400002B510000494F000014
:101D2000504500004E3D000022540000435000008A
:101D3000222C000022250000732200002C2200002B
:101D400025730000220D00000A0000005420EF005F
:101D500023EB2000008041001040BA000160EF003A
:101D6000000006006E6F00006E65000000000000BD
:101D70005420EF0043EC2000008041001040BA00E6
:101D80000160EF0000000600576100006974000068
:101D9000696E00006720000072650000636F00003C
:101DA0006E6E000065630000742E00002E2E000091
:101DB0000D0A0000000000005420EF0083EE200018
:101DC000008041001040BA000160EF0000000600F2
:101DD000415400002B5100004944000045410000DF
:101DE000435400000D0A0000000000005420EF00E2
:101DF00023F02000008041001040BA000160EF0095
:101E0000000006007265000063650000697600004E
:101E100065640000207400006F70000069630000BA
:101E20003A200000257300000D0A000000000000A9
:101E30005420EF0043F22000008041001040BA001F
:101E40000160EF00000006004F4E0000000000009F
:101E50005420EF0043F32000008041001040BA00FE
:101E60000160EF00000006004C6100006D70000092
:101E7000205300007461000074750000733100008D
:101E80003A200000257300000D0A00000000000049
:101E90005420EF0043F52000008041001040BA00BC
:101EA0000160EF00000006004F4600004600000001
:101EB0005420EF0043F62000008041001040BA009B
:101EC0000160EF00000006004C6100006D70000032
:101ED000205300007461000074750000733200002C
:101EE0003A200000257300000D0A000000000000E9
:101EF0005420EF0043F82000008041001040BA0059
:101F00000160EF00000006004465000076690000F3
:101F1000636500004E6F00002E31000000000000DD
:101F20005420EF00C3F92000008041001040BA00A7
:101F30000160EF00000006005365000074740000AB
:101F4000696E000067200000427200006F6B0000A5
:101F5000657200000D0A0000000000005420EF0030
:101F6000A3FB2000008041001040BA000160EF0098
:101F700000000600427200006F6B000065720000F6
:101F80003A200000257300000D0A00000000000048
:101F90005420EF0043FD2000008041001040BA00B3
:101FA0000160EF0000000600706F00007274000016
:101FB0003A200000257300000D0A00000000000018
:101FC0005420EF00C3FE2000008041001040BA0002
:101FD0000160EF000000060053650000747400000B
:101FE000696E000067200000427200006F6B000005
:101FF00065720000204F00004B0D00000A00000039
:102000005420EF00C3002100008041001040BA00BE
:102010000160EF00000006006D71000074740000A4
:10202000204300006F6E0000747200006F6C0000AF
:1020300020500000616300006B6500007420000008
:1020400054790000706500003A200000256400000B
:102050000D0A0000000000005420EF00830321005F
:10206000008041001040BA000160EF00000006004F
:102070002F6400006576000069630000657300004E
:102080002F740000656D0000706500007261000033
:1020900074750000726500002F760000616C00000E
:1020A00075650000000000005420EF0003062100C9
:1020B000008041001040BA000160EF0000000600FF
:1020C0007B220000546500006D700000223A000081
:1020D00022250000642E000025640000227D0000FF
:1020E000000000005420EF00E307210000804100C1
:1020F0001040BA000160EF00000006000D0A000069
:102100006E7500006D4F00006652000065670000AC
:102110003A200000256400000D0A000000000000C5
:102120005420EF00C3092100008041001040BA0094
:102130000160EF00000006002A2A00002A200000AB
:10214000457800006365000070740000696F00004E
:102150006E3A000020250000642000002A2A0000BA
:102160002A0D00000A0000003202AE00FEFF370018
:102170003202F8000010F900B01180003222A900EC
:1021800000000600E695BF0001002000330020009B
:102190004200A9000080D2008180D2008301E900C2
:1021A000FBFF3A00318088000AA1B700000006005A
:1021B0006472A900E215AF006472A800E635EF0072
:1021C000C2100200000000000000060041D4BF0061
:1021D000E2D5B600E3F5B700E3D5BF000160EF003C
:1021E000000202000000000041F4B70040D4BF002C
:1021F00041F4B600E3D5BF000160EF00C802020061
:102200000000000040F4B700000006004200F800A3
:102210003600F8005400F800801F780020002000ED
:102220000C000900B01F78003202AE0048003700F1
:1022300040EEA90044EEA800B41002000000000027
:10224000E0F5B700E0D5BF002322AF00FEFF370066
:1022500024E2B7002562EF006552E20009003A006F
:1022600040B4EF00E0D5BF00FCF3B700FD73EF0012
:10227000FF73EF0010C0B30065F2B7007A110400DD
:1022800000000000249380004822DE006124E10069
:1022900007003A00E0D5BF00FEF3B700FD73EF0082
:1022A00020C0B30065F2B7007A11040000000000FE
:1022B000249380004822DE006224E1000D003A00F1
:1022C000E49F80004822DE00034021008482410018
:1022D000E095BF0080429800FD73EC00E49F800011
:1022E0004822DE0003042000041CE100010031004C
:1022F000FD73EF0010C0B300E2F5B700D810020084
:1023000000000000E0D5BF00E2F5B700E6100200D3
:10231000000000000471220024A288004634EF006F
:102320004054E20006003A004154E20004003A0042
:1023300064F2A80040EEA90044EEA9006572EF0027
:102340004A14A90064D2A80040EEA90044EEA900F6
:1023500003C8A900A00120000C0009004F1078005C
:102360004F0078005400F9003600F9004200F900EF
:1023700000400600851F7800DE14F800E014F90024
:1023800000002000E014B40080027800E4A6800081
:102390008402980020002000E014B400800278003D
:1023A000804AEB0000C0B30090429800E014F800AF
:1023B0000000F900CF02780000000600851F7800B9
:1023C00020002000D814B400900278000500E0003E
:1023D00008003A0020002000DA14B40080027800DF
:1023E000804AEB0000C0B30090429800061204003F
:1023F0000000000020002000DA14B4008002780001
:1024000020002000D814B400900A7800200020009A
:10241000D814B40080027800D4A68000840298000A
:10242000CF02780000000600851F78000000200021
:10243000DA14B40080027800E4A6800084029800D8
:10244000CF02780000000600851F7800861F780004
:10245000CC94BF00610060000000E0000100320089
:10246000CC34EC006C14F800CE14F900CE14E20069
:102470004400320000002000CE14B4009002780026
:1024800005F0A7003900370000002000CE14B4008A
:102490001003780064A680000620E10033003E00AF
:1024A00000002000CE14B400901F7800D214F90070
:1024B00064A68000640242000400780094A68000B4
:1024C0000020E1001F00360094A6800063A6800073
:1024D00083025200E482520074A68000640242002B
:1024E0000403780006007800CC14B40000037800E0
:1024F000E5A68800F6A68800BA11020000000000D8
:10250000D0B4B700CE14F800D814F900D014F800F5
:10251000DA14F900DE1102000000000004002800B7
:1025200063A6800084824100CE14F800DA14F9001A
:10253000E5A688001412020000000000B212040098
:10254000000000000400280093A68000848241005F
:10255000CE14F800DA14F900E5A68800141202007F
:1025600000000000C2120400000000002000200053
:10257000CE14B400901F7800CE14F9003612040077
:1025800000000000CE14E20004003A000020EF003A
:1025900007003700D81204000000000074A6800075
:1025A000640242000400780000A0B7000000370079
:1025B0004F037800CF02780000000600811F7800EA
:1025C000B1A38000805878008048EB00CF007800ED
:1025D0007634EC00000006000000E0004220AF006E
:1025E000060037001B0E090000000000FE3F090036
:1025F000000000000000E900FAFF3A0000000600B9
:1026000001002000010078000160EF00900302004B
:10261000000000008100E8002322AF00FEFF370029
:1026200024A2B700800120001008E600F5FF370063
:10263000402EA900442EA800402EA900442EA90037
:10264000007D2000EC1202000000000040CEA90036
:1026500044CEA80000000600DE94BF000100200068
:10266000630020004200A9000080D2008180D200D7
:102670008301E900FBFF3A001180880000A1B70048
:10268000000006000068AE00070037000230EC00D2
:102690000081BF000000E8004220AF000021EF00F1
:1026A0000068A900090037000081BF000068AE0083
:1026B000070037000230EC000081BF000000E80096
:1026C0004220AF000021EF000068A9000081BF0098
:1026D00011808000620020008180D3000080D30040
:1026E0000201E900FCFF3A00000006005202AE00C1
:1026F000FEFF37005202F8000010F900B01280000F
:102700005222A90000000600851F78003495BF0002
:102710001004E0001B0032003415F8003815F900F1
:102720003615F8003A15F9003A95BF001004E0009C
:102730000B0032003895BF00904278003A95BF00F8
:102740000002780014407800002CE10004003A00F8
:102750003835EC003A35EC0094130400000000001A
:102760003A95BF001004E00003003A003415F80069
:102770000000F900040037003435EC008613040033
:10278000000000000020EF00CF02780000000600EB
:10279000800178000180FD0054C0B3000360ED00AB
:1027A0000860ED001300320003007800C419DD005A
:1027B0004C00DE00F000B20004003A006124E100A9
:1027C0000200320003E0AE00F4FF37000003B00067
:1027D000A20320000200E100010039000240B40021
:1027E0002322AF00FEFF370024A2B70003E0A800B9
:1027F000EAFF370000000600861F7800871F780078
:10280000881F7800891F78000002EB008002EB002F
:102810000003EB008003EB000304690011003200A9
:10282000080220004200A9000080D2008180D2006E
:102830000482D2008582D2000328E10001003A0020
:1028400002A0E100030039000202520083825A0014
:102850004200A8000683D2008783D2000804E90062
:10286000F0FF3A008700780006007800CF04780077
:102870004F047800CF0378004F0378000000060073
:10288000851F7800C500200007000900B51F7800EB
:1028900001F0A600070037000000EA000100320046
:1028A00002003A008100EA00010037008180EA005E
:1028B0000480A0008002EB00000378008103780010
:1028C0000406780004F0A1000404E00001003A00CE
:1028D00018003700EB425200160039000542520042
:1028E0000CF0A6000B0037000480A600070037009C
:1028F000D00220002322AF00FEFF370024A2B70041
:102900000480A1008502E9000A00330000032000D2
:1029100001003700000220002322AF00FEFF370035
:1029200024A2B7008502E900FBFF3B000480A7005A
:102930000442E900E8002000090020001000FA002D
:102940000C377C000884E900FDFF3B00840278001E
:10295000A40020000580A7000402E80005E0A00014
:102960000CF0A70005F0A0000504E0000100320013
:102970008542E900040F78001507980006007800EA
:102980008700780002A02C00A3B923000871220060
:102990000DF0A1004300A900FC130200000000009C
:1029A0000DF0A2000DF0A7000700370040079800C7
:1029B0005107980000017800810178002E009000F6
:1029C000BE009000F3FF37004207980053079800BD
:1029D00024079800350798001E0278009E02900098
:1029E000060320000000E00011003A0005E0A60008
:1029F000110037000402E900040F78000400E00031
:102A00000D0032000524E100020032004200AF0058
:102A10001800370005F0A600030037000580A60067
:102A20001000370007003700060220000D003700B5
:102A300005E0A100150798009E0290000580A60001
:102A4000080037000580A1001507980000057800F0
:102A5000D00220002322AF00FEFF370024A2B700DF
:102A60000A007800004043002322AF00FEFF370039
:102A700024A2B7004E009000DE009000A2002000CB
:102A80008001EB006100E10001003200C1FF37006E
:102A90000080FA00A501200007000900CF1278008D
:102AA000CF02780000000600851F7800861F78009E
:102AB0004E15F8005015F9005095BF00904278006F
:102AC0008502FB000500E000030032005035EC00F9
:102AD0005C1504000000000084AA800073AA800036
:102AE000030052004F037800CF0278000000060078
:102AF000851F7800861F78004815A9004815AF008B
:102B00004C003700740020000960EF0025AA800007
:102B100036AA80000402E8000402E9000300320043
:102B20000603D1008582D300FBFF37000500E000DB
:102B300002003A000600E0002500320025AA8000CD
:102B4000F507B2000003EB000508B00060034B007E
:102B5000054078005322AF00FEFF370054E2B70073
:102B60005562EF0001002000010078000160EF00D5
:102B7000820A0200000000008100E8002322AF006A
:102B8000FEFF370024A2B700C00020001008E600B6
:102B9000F5FF37004495BF0031AA800004002000F3
:102BA0004014020000000000740020000960EF00E3
:102BB0000402E8000402E900030032004635D500B3
:102BC00044B5D700FBFF37001616040000000000D4
:102BD00044D5BF005322AF00FEFF370054E2B700D8
:102BE0005562EF0001002000010078000160EF0055
:102BF000820A0200000000008100E8002322AF00EA
:102C0000FEFF370024A2B700C00020001008E60035
:102C1000F5FF37004495BF0031AA80000400200072
:102C200040140200000000004815A8007E150400B2
:102C3000000000004F037800CF027800000006007B
:102C4000851F7800C500200003000900B51F78002B
:102C500000F0A6000C0037000000EA000480A0008D
:102C600004F0A60008003700801F7800D002200082
:102C70002322AF00FEFF370024A2B7004F007800E8
:102C80000480A1000860ED008002EB008003780062
:102C90008404780004F0A1000404E00006003A0077
:102CA00009F0A70002003700050020000F003700E0
:102CB000050020000D003700E64252000A003900EE
:102CC0000003200009F0A600000220002322AF002C
:102CD000FEFF370024A2B7008502E900FBFF3B009E
:102CE00055002000010037008402780064002000B5
:102CF0000580A7000402E80005E0A00009F0A70095
:102D000005F0A00008712200110009008883D80096
:102D1000CC1602000000000081037800883E2000ED
:102D2000110009008883D800CC16020000000000C2
:102D30008103780048062000110009008883D8002C
:102D4000CC1602000000000081037800A8002000DB
:102D5000110009008883D800CC1602000000000092
:102D60000980A60005003700D00220002322AF0012
:102D7000FEFF370024A2B7000980A1000003200055
:102D800000C04000500188002322AF00FEFF370042
:102D900024A2B70020003700060320000000E00056
:102DA0000E003A0005E0A600160037000402E90014
:102DB0000524E100020032004200AF0000000600DE
:102DC0000000E00005003A0005E0A6000D00370015
:102DD00005F0A600060220000A00370005E0A10069
:102DE0000980A6000700370000057800D002200007
:102DF0002322AF00FEFF370024A2B7000980A10004
:102E00000A007800004043002322AF00FEFF370095
:102E100024A2B700000006002501200003000900DD
:102E2000CF127800CF02780000000600851F7800DE
:102E30004815F8004E15F900541502000000000076
:102E40004AF5B7004B75EF0054AA8000031020002C
:102E5000110009000302D8008002780005407800C4
:102E60005322AF00FEFF370054E2B7005562EF0077
:102E700054AA800003102000110009000302D800AA
:102E800081027800054078005322AF00FEFF370032
:102E900054E2B7005562EF0041AA80001104E0003F
:102EA000070032005322AF00FEFF370001409000C0
:102EB00054E2B7005562EF008100E800F7FF3700E9
:102EC00001002000010078000160EF009E0A02006E
:102ED000000000008100E8002322AF00FEFF370061
:102EE00024A2B700300120001008E600F5FF3700EB
:102EF0004A95BF00040020002016020000000000D8
:102F00002322AF00FEFF3700D400200024118800E8
:102F10002322AF00FEFF3700A40020002411880008
:102F200001002000010078000160EF00C40A0200E7
:102F3000000000008100E8002322AF00FEFF370000
:102F400024A2B700F00020001008E600F5FF3700CB
:102F500041AA80001104E000070032002322AF00E4
:102F6000FEFF37000140900024E2B7002562EF0029
:102F70008100E800F7FF37002322AF00FEFF370093
:102F8000D4002000241188002322AF00FEFF370068
:102F9000A400200024118800CF0278000000060061
:102FA000851F7800861F7800F40F20001493880096
:102FB00001002000010078000160EF00E20B020038
:102FC000000000008100E8002322AF00FEFF370070
:102FD00024A2B700D00020001008E600F5FF37005B
:102FE000000020003415B4008002780001002000A9
:102FF000010078000160EF00FE0B020000000000FD
:103000008100E8002322AF00FEFF370024A2B700B2
:10301000A00020001008E600F5FF370085007800CA
:103020001104E000070032002322AF00FEFF37004A
:103030000140900024E2B7002562EF008100E80023
:10304000F7FF37002322AF00FEFF3700D400200037
:10305000241188002322AF00FEFF3700A4002000C7
:1030600024118800500E20003415B4008042EB007B
:10307000104078000010A7008502E8000100200041
:10308000010078000160EF001A0C0200000000004F
:103090008100E8002322AF00FEFF370024A2B70022
:1030A000C00020001008E600F5FF3700054078005A
:1030B0000160EF0021702200C81302000000000030
:1030C0002322AF00FEFF3700D40020002411880027
:1030D0002322AF00FEFF3700A40020002411880047
:1030E000400620003415B4008042EB001040780008
:1030F0000010A7008502E800010020000100780010
:103100000160EF003A0C0200000000008100E800BE
:103110002322AF00FEFF370024A2B70000012000E9
:103120001008E600F5FF3700054078000160EF0069
:1031300021702200C8130200000000002322AF000B
:10314000FEFF3700D4002000241188002322AF00A6
:10315000FEFF3700A4002000241188000100200099
:10316000010078000160EF005E0C0200000000002A
:103170008100E8002322AF00FEFF370024A2B70041
:10318000100120001008E600F5FF37008492BF0010
:103190003194800004002000401402000000000070
:1031A0002322AF00FEFF3700D40020002411880046
:1031B0002322AF00FEFF3700A40020002411880066
:1031C00000C1B3005322AF00FEFF370054E2B70046
:1031D0005562EF00D4142500B4A9880044452500A9
:1031E000C4A988003A75EF006453210074AA8800CE
:1031F00054150200000000000080FB000160EF0099
:103200006200400080027800E1824200E3824200D6
:10321000000020003415B4000003780076AA88006E
:1032200054150200000000000080FB000160EF0068
:1032300062004000050040003EB5B700500E20007F
:103240003415B400000278000000EB0094417800CF
:103250000310A7000000E8000004E000170032009F
:10326000600E20003415B400904278000502FB0087
:1032700074AA880054150200000000000080FB00C2
:103280000160EF006200400080027800700E2000B4
:103290003415B400104378000602FB0074AA8800BD
:1032A00054150200000000000080FB000160EF00E8
:1032B00062004000050040003E35B400400620009A
:1032C0003415B400000278000000EB00944178004F
:1032D0000310A7000000E8000004E0001D00320019
:1032E000500A20003415B4008002780075AA8800C6
:1032F00054150200000000000080FB000160EF0098
:10330000620040003E35B400400620003415B40091
:10331000000278000000EB00944178000300A70051
:103320000000E8000004E0000A003200500620001F
:103330003415B4008002780075AA88005415020084
:10334000000000000080FB000160EF006200400010
:103350003E35B4003E15F8004415F9000002EB00BC
:1033600045F5AF000082EB0034AA88007815020012
:10337000000000006453210044AA880016170200D0
:103380000000000072D2BF005322AF00FEFF3700E2
:1033900054E2B7005562EF00400620003415B40037
:1033A000000278000000EB00944178000310A700B1
:1033B0000000E8000160EF00C702DD0040062000C9
:1033C0003415B400000278000000EB00944178004E
:1033D0000300A7000000E8000160EF004600DD00E8
:1033E00085024000500E20003415B4000002780021
:1033F0000000EB00944178000330A7000000E800D3
:103400000160EF004500DD0085024000500E200005
:103410003415B400000278000000EB0094417800FD
:103420000320A7000000E8000160EF004300DD007A
:1034300085024000500E20003415B40000027800D0
:103440000000EB00944178000310A7000000E800A2
:103450000160EF004200DD0085024000500E2000B8
:103460003415B400000278000000EB0094417800AD
:103470000300A7000000E8000160EF004100DD004C
:1034800085024000054078005322AF00FEFF370060
:1034900054E2B7005562EF0085D2BF008042780049
:1034A00086D2BF000BE0B70087D2BF000043780090
:1034B0000D60EF00054078005322AF00FEFF37009B
:1034C00054E2B7005562EF0025948000F50FB2007A
:1034D0000003EB00054078005322AF00FEFF3700E9
:1034E00054E2B7005562EF00000020003415B4002C
:1034F0008002780045AA880016170200000000002C
:10350000500E20003415B400000278000000EB00DB
:10351000944178000310A7000000E8006104E10076
:103520000E003A00600E20003415B400904278007E
:103530000502FB0044AA88001617020000000000E4
:10354000700E20003415B400904278000502FB0094
:1035500044AA880016170200000000004006200060
:103560003415B400000278000000EB0094417800AC
:103570000310A7000000E8006104E10015003A0014
:10358000500A20003415B4008002780045AA880053
:103590001617020000000000400620003415B40099
:1035A000000278000000EB00944178000300A700BF
:1035B0000000E8006104E10006003A005006200027
:1035C0003415B4008002780045AA8800161702005E
:1035D000000000004F037800CF02780000000600D2
:1035E0000A11F8003415F900D0170200000000009D
:1035F00000000600851F7800C500200003000900B8
:10360000B51F78000202B80003F0A60002003700E0
:103610000383B900010037000303B8004200A9008A
:103620008502430060844B0001F0A60002003700D1
:10363000028BB90001003700020BB80085024B0075
:1036400008844B000980B000038BB90008044B00CC
:1036500087834C0087017800080178008500780096
:10366000040078002501200003000900CF12780033
:10367000CF02780000000600010020000100780061
:103680000160EF009C080200000000008100E800DB
:103690002322AF00FEFF370024A2B7006001200004
:1036A0001008E600F5FF37003495BF0021702200B6
:1036B000C8130200000000002322AF00FEFF370005
:1036C000D4002000241188002322AF00FEFF370021
:1036D000A4002000241188003495BF000080B200AF
:1036E0000B0032001080B200170032003080B200B0
:1036F000230032001080B2002F0032007080B20030
:103700003B0032001080B200470032005400370006
:1037100001002000010078000160EF00C6080200EF
:10372000000000008100E8002322AF00FEFF370008
:1037300024A2B700200120001008E600F5FF3700A2
:103740004C1C040000000000010020000100780073
:103750000160EF00E6080200000000008100E800C0
:103760002322AF00FEFF370024A2B7009003200001
:103770001008E600F5FF37004C1C040000000000B4
:1037800001002000010078000160EF002A0902001A
:10379000000000008100E8002322AF00FEFF370098
:1037A00024A2B700000320001008E600F5FF370050
:1037B0004C1C040000000000010020000100780003
:1037C0000160EF0068090200000000008100E800CD
:1037D0002322AF00FEFF370024A2B700F002200032
:1037E0001008E600F5FF37004C1C04000000000044
:1037F00001002000010078000160EF00A60902002E
:10380000000000008100E8002322AF00FEFF370027
:1038100024A2B700600320001008E600F5FF37007F
:103820004C1C040000000000010020000100780092
:103830000160EF00E8090200000000008100E800DC
:103840002322AF00FEFF370024A2B7009002200021
:103850001008E600F5FF37004C1C040000000000D3
:1038600001002000010078000160EF00220A020040
:10387000000000008100E8002322AF00FEFF3700B7
:1038800024A2B700800120001008E600F5FF3700F1
:103890004C1C04000000000000000600851F78009A
:1038A00001002000010078000160EF00E60A02003C
:1038B000000000008100E8002322AF00FEFF370077
:1038C00024A2B700B00020001008E600F5FF370082
:1038D00001002000010078000160EF009206020064
:1038E000000000008100E8002322AF00FEFF370047
:1038F00024A2B700A00020001008E600F5FF370062
:103900003495BF00040020002016020000000000D3
:103910002322AF00FEFF3700D400200024118800CE
:103920002322AF00FEFF3700A400200024118800EE
:1039300000C4B3005322AF00FEFF370054E2B700CB
:103940005562EF002400200024AA88004635EF00CD
:10395000781502000000000035D5BF0080427800D5
:103960000B60EF00054078005322AF00FEFF3700E8
:1039700054E2B7005562EF00A5A98000F50FB20030
:10398000054078005322AF00FEFF370054E2B70035
:103990005562EF00CF02780000000600851F780016
:1039A00001002000010078000160EF00000B020020
:1039B000000000008100E8002322AF00FEFF370076
:1039C00024A2B700B00020001008E600F5FF370081
:1039D00001002000010078000160EF009206020063
:1039E000000000008100E8002322AF00FEFF370046
:1039F00024A2B700A00020001008E600F5FF370061
:103A00003495BF00040020002016020000000000D2
:103A10002322AF00FEFF3700D400200024118800CD
:103A20002322AF00FEFF3700A400200024118800ED
:103A300000C5B3005322AF00FEFF370054E2B700C9
:103A40005562EF002400200024AA88004635EF00CC
:103A5000781502000000000035D5BF0080427800D4
:103A60000B60EF00054078005322AF00FEFF3700E7
:103A700054E2B7005562EF00A5A98000F50FB2002F
:103A8000054078005322AF00FEFF370054E2B70034
:103A90005562EF00CF02780000000600851F780015
:103AA00001002000010078000160EF001A0B020005
:103AB000000000008100E8002322AF00FEFF370075
:103AC00024A2B700B00020001008E600F5FF370080
:103AD00001002000010078000160EF009206020062
:103AE000000000008100E8002322AF00FEFF370045
:103AF00024A2B700A00020001008E600F5FF370060
:103B00003695BF00040020002016020000000000CF
:103B10002322AF00FEFF3700D400200024118800CC
:103B20002322AF00FEFF3700A400200024118800EC
:103B300034D5BF000160EF004300DD000406200023
:103B400084024000E2824200054078005322AF0028
:103B5000FEFF370054E2B7005562EF00240020005A
:103B600024AA88004635EF00781502000000000006
:103B700037D5BF00804278000B60EF000540780029
:103B80005322AF00FEFF370054E2B7005562EF004A
:103B9000B5A98000F50FB200054078005322AF00B0
:103BA000FEFF370054E2B7005562EF00CF02780005
:103BB00000000600851F7800010020000100780049
:103BC0000160EF00340B0200000000008100E800FB
:103BD0002322AF00FEFF370024A2B700C000200060
:103BE0001008E600F5FF3700010020000100780012
:103BF0000160EF0092060200000000008100E80072
:103C00002322AF00FEFF370024A2B700A00020004F
:103C10001008E600F5FF37003495BF0004002000CF
:103C200020160200000000002322AF00FEFF370034
:103C3000D4002000241188002322AF00FEFF3700AB
:103C4000A40020002411880000C7B3005322AF0055
:103C5000FEFF370054E2B7005562EF002400200059
:103C600024AA88004635EF00781502000000000005
:103C700035D5BF00804278000B60EF00054078002A
:103C80005322AF00FEFF370054E2B7005562EF0049
:103C9000A5A98000F50FB200054078005322AF00BF
:103CA000FEFF370054E2B7005562EF00CF02780004
:103CB00000000600851F7800861F7800871F7800A7
:103CC000881F78005202AE009D07370040EEA90021
:103CD00044EEA8007613020000000000E0F4B700F4
:103CE0000931AF003502370064908000830C20005A
:103CF0000418E100070036000C92BF000C32EC0003
:103D000080027800C410210004834200E094BF00C8
:103D10000043980004A780006A24E10025023A00CD
:103D2000C41021006390800084824100804AEB002F
:103D30000C32EF00C11021001104E0000700320036
:103D40002322AF00FEFF37000140900024E2B700BD
:103D50002562EF008100E800F7FF37003300200004
:103D600002002000214E2100831F7800020078000D
:103D7000B603020000000000CF01780080587800F0
:103D80000201E8008301E9004220AE00F6FF37009F
:103D9000C4102100A4A98800244E2100B4A98800E1
:103DA0008413020000000000800278000500E0009B
:103DB0000400320014002000A4938800DA220400DA
:103DC000000000006300200002002000214E2100BE
:103DD000831F780002007800C60302000000000084
:103DE000CF017800805878000201E8008301E900E3
:103DF0004220AE00F6FF3700C4102100A4A98800BD
:103E0000244E2100B4A988008413020000000000A1
:103E1000800278000500E000050032002400200048
:103E2000A49388000931A900DA22040000000000F0
:103E30002300200002002000214E2100831F780073
:103E400002007800D803020000000000CF017800D3
:103E5000805878000201E8008301E9004220AE00AA
:103E6000F6FF3700C4102100A4A98800244E2100C9
:103E7000B4A98800841302000000000080027800CA
:103E80000500E0000400320034002000A493880004
:103E9000DA22040000000000D3002000020020000D
:103EA000214E2100831F780002007800E603020003
:103EB00000000000CF017800805878000201E8007F
:103EC0008301E9004220AE00F6FF3700C410210054
:103ED000A4A98800244E2100B4A9880084130200FC
:103EE00000000000800278000500E00004003200BD
:103EF00054002000A4938800DA220400000000008F
:103F0000B300200002002000214E2100831F780012
:103F1000020078000004020000000000CF017800D9
:103F2000805878000201E8008301E9004220AE00D9
:103F3000F6FF3700C4102100A4A98800244E2100F8
:103F4000B4A98800841302000000000080027800F9
:103F50000500E000180032000931A8006432A80012
:103F600044002000A4938800010020000100780094
:103F70000160EF0018040200000000008100E8006A
:103F80002322AF00FEFF370024A2B700E00020008C
:103F90001008E600F5FF3700F01A020000000000EC
:103FA0008232EF0040AEA90044AEA800E40637001C
:103FB000DA22040000000000A3002000020020001C
:103FC000214E2100831F7800020078003404020093
:103FD00000000000CF017800805878000201E8005E
:103FE0008301E9004220AE00F6FF3700C410210033
:103FF000A4A98800244E2100B4A9880084130200DB
:1040000000000000800278000500E0001800320087
:104010000931A8006432A80044002000A49388005D
:1040200001002000010078000160EF001804020088
:10403000000000008100E8002322AF00FEFF3700EF
:1040400024A2B700E00020001008E600F5FF3700CA
:10405000F01A0200000000008232EF0040AEA9001A
:1040600044AEA800B6063700DA22040000000000C3
:104070007300200002002000214E2100831F7800E1
:10408000020078004A04020000000000CF0178001E
:10409000805878000201E8008301E9004220AE0068
:1040A000F6FF3700C4102100A4A98800244E210087
:1040B000B4A9880084130200000000008002780088
:1040C0000500E0001400320044002000A4938800A2
:1040D00001002000010078000160EF005E04020092
:1040E000000000008100E8002322AF00FEFF37003F
:1040F00024A2B700100120001008E600F5FF3700E9
:104100000931A9006432A90040AEA90044AEA9005B
:10411000DA2204000000000023002000020020003A
:10412000214E2100831F7800020078007E040200E7
:1041300000000000CF017800805878000201E800FC
:104140008301E9004220AE00F6FF3700C4102100D1
:10415000A4A98800244E2100B4A988008413020079
:1041600000000000800278000500E000100032002E
:1041700014002000F4938800010020000100780062
:104180000160EF008C040200000000008100E800E4
:104190002322AF00FEFF370024A2B7001001200049
:1041A0001008E600F5FF3700DA22040000000000E6
:1041B000C4102100A4A988009612F8003615F90051
:1041C0008413020000000000800278000500E00077
:1041D000F800320014002000B493880093002000FF
:1041E00002002000214E2100831F78000200780089
:1041F000AC04020000000000CF0178008058780075
:104200000201E8008301E9004220AE00F6FF37001A
:10421000C4102100A4A98800244E2100B4A988005C
:104220008413020000000000800278000500E00016
:104230000400320024002000B4938800DA22040035
:10424000000000007300200002002000214E210029
:10425000831F780002007800C20402000000000002
:10426000CF017800805878000201E8008301E9005E
:104270004220AE00F6FF3700C4102100A4A9880038
:10428000244E2100B4A9880084130200000000001D
:10429000800278000500E0000400320034002000B5
:1042A000B4938800DA22040000000000830020009C
:1042B00002002000214E2100831F780002007800B8
:1042C000D604020000000000CF017800805878007A
:1042D0000201E8008301E9004220AE00F6FF37004A
:1042E000C4102100A4A98800244E2100B4A988008C
:1042F0008413020000000000800278000500E00046
:104300000400320044002000B4938800DA22040044
:10431000000000009300200002002000214E210038
:10432000831F780002007800EA0402000000000009
:10433000CF017800805878000201E8008301E9008D
:104340004220AE00F6FF3700C4102100A4A9880067
:10435000244E2100B4A9880084130200000000004C
:10436000800278000500E0000400320044002000D4
:10437000B4938800DA2204000000000083002000CB
:1043800002002000214E2100831F780002007800E7
:104390000005020000000000CF017800805878007E
:1043A0000201E8008301E9004220AE00F6FF370079
:1043B000C4102100A4A98800244E2100B4A98800BB
:1043C0008413020000000000800278000500E00075
:1043D00016003A007300200002002000214E210048
:1043E000831F78000200780014050200000000001E
:1043F000CF017800805878000201E8008301E900CD
:104400004220AE00F6FF3700C4102100A4A98800A6
:10441000244E2100B4A9880084130200000000008B
:10442000800278000500E000040032005400200003
:10443000B4938800DA22040000000000F30020009A
:1044400002002000214E2100831F78000200780026
:104450002805020000000000CF0178008058780095
:104460000201E8008301E9004220AE00F6FF3700B8
:10447000C4102100A4A98800244E2100B4A98800FA
:104480008413020000000000800278000500E000B4
:104490000400320064002000B4938800DA22040093
:1044A00000000000C300200002002000214E210077
:1044B000831F78000200780044050200000000001D
:1044C000CF017800805878000201E8008301E900FC
:1044D0004220AE00F6FF3700C4102100A4A98800D6
:1044E000244E2100B4A988008413020000000000BB
:1044F000800278000500E0002C003A00E300200074
:1045000002002000214E2100831F78000200780065
:104510005C05020000000000CF01780080587800A0
:104520000201E8008301E9004220AE00F6FF3700F7
:10453000C4102100A4A98800244E2100B4A9880039
:104540008413020000000000800278000500E000F3
:1045500016003A00B300200002002000214E210086
:10456000831F78000200780076050200000000003A
:10457000CF017800805878000201E8008301E9004B
:104580004220AE00F6FF3700C4102100A4A9880025
:10459000244E2100B4A9880084130200000000000A
:1045A000800278000500E000020032007400200064
:1045B000B49388009C2D040000000000E0D4BF00EC
:1045C0000000FB0000027800030120001100090038
:1045D0000302D800800278006F806200F2B4B70056
:1045E000F214F8008C12F900E0D4BF000000FB00C8
:1045F000E802600005027800830020001100090035
:104600000302D800F4B4B700E0D4BF000000FB0000
:10461000E602600005027800230020001100090076
:104620000302D800F6B4B700E0D4BF000000FB00DE
:1046300061006000F8B4B70094A780006120E10039
:104640009900390094A780006E20E10096003E009A
:10465000E114A8006632EF006832EF006A32EF0022
:104660006C32EF0014002000D4A78800FC34EF0067
:10467000E0D4BF00FEF4B7000035EF000235EF00D4
:10468000E114AE00880037000931AE008600370023
:104690005202AE007500370040EEA90044EEA800BB
:1046A0007613020000000000E0F4B700FED4BF0063
:1046B0000000FB0080027800F50FB20034042000F7
:1046C0000520E1000B003A00E0D4BF000000FB0031
:1046D00080027800F50FB200C40420000520E1003C
:1046E00004003A006612E20002003A006812E2009A
:1046F00010003200FED4BF000000FB0080027800F2
:10470000F50FB200B40220000520E1001D003A00C0
:10471000E0D4BF000000FB00F00FB2000000E0009A
:10472000180032006612E20016003A006812E20039
:1047300014003A000C32EF000C92BF000C32EC0077
:1047400080027800C410210004834200FE94BF0060
:10475000004398000C92BF000C32EC0080027800FD
:10476000C410210004834200E094BF00004398007D
:104770000931A9006412A9006432A900362404009A
:1047800000000000E0D4BF000000FB0080027800C1
:104790000508B200040820000520E1001A003A00D4
:1047A000E0D4BF000000FB0080027800F507B200F3
:1047B000050078008000EB0000F0A7008080EB008F
:1047C000D2A78000E3A78000FA1A020000000000D0
:1047D0006632B400010078006892B40068B2B70095
:1047E000740020000960EF000402E8000402E90000
:1047F00003003200FA34D400FCB4D600FBFF3700CB
:104800003624040000000000E114A900E0D4BF0039
:104810000000FB0080027800F507B2000500780078
:104820008000EB0000F0A7008080EB00D2A78000A2
:10483000E3A78000FA1A0200000000006632B4000C
:10484000010078006892B40068B2B70074002000DC
:104850000960EF000402E8000402E90003003200EE
:10486000FA34D400FCB4D600FBFF37000035EC006E
:104870004220AF000235EC0014A880006020E10067
:104880000700390004003E0004A8800003712200E4
:104890000418E1000200310054240400000000006C
:1048A00040230400000000006612F8006A12F900BC
:1048B0006812F8006C12F900449380006020E10057
:1048C0000600390004003E0034938000830C200071
:1048D0000418E10001003100990437000931AE00ED
:1048E000950437000C32EF006612E20002003A0035
:1048F0006812E200150032000C92BF000C32EC008E
:1049000080027800C4102100048342007613020064
:1049100000000000004B780040EEA90044EEA80023
:104920006632ED004200AE006832ED006490800017
:10493000F30F20000418E10002003100A624040057
:1049400000000000742404000000000001002000AA
:10495000010078000160EF008E05020000000000F9
:104960008100E8002322AF00FEFF370024A2B70039
:10497000C00020001008E600F5FF3700C01021003D
:104980000400200020160200000000002322AF00D7
:10499000FEFF3700D4002000241188002322AF003E
:1049A000FEFF3700A400200024118800F294BF000D
:1049B0002080B200130032001080B2006D0032007F
:1049C0007080B200170232003080B2005002320014
:1049D000E080B200890232002080B200C3023200BF
:1049E000E080B2002E0332003080B2009E0332001D
:1049F000A080B2000D0432001080B20034043200F6
:104A00004D04370001002000010078000160EF0034
:104A1000AC050200000000008100E8002322AF0086
:104A2000FEFF370024A2B700000120001008E600B6
:104A3000F5FF3700F294BF000400200020160200AA
:104A4000000000002322AF00FEFF3700D40020004A
:104A5000241188002322AF00FEFF3700A4002000AD
:104A60002411880001002000010078000160EF009F
:104A7000CE050200000000008100E8002322AF0004
:104A8000FEFF370024A2B700F00020001008E60067
:104A9000F5FF37000CD1BF000000FB000400200030
:104AA00020160200000000002322AF00FEFF3700A6
:104AB000D4002000241188002322AF00FEFF37001D
:104AC000A4002000241188000100200001007800CB
:104AD0000160EF00F0050200000000008100E80026
:104AE0002322AF00FEFF370024A2B700F000200011
:104AF0001008E600F5FF37000DD1BF000000FB00F5
:104B00000400200020160200000000002322AF0055
:104B1000FEFF3700D4002000241188002322AF00BC
:104B2000FEFF3700A4002000241188000CD1BF0034
:104B30000000FB00041020000480B900800278000F
:104B40000DD1BF000000FB000500400062B2B700BD
:104B50006212E20001003A006412A8006212F8003A
:104B60003415F9003C1B0200000000009C2D0400DD
:104B70000000000001002000010078000160EF004B
:104B800012060200000000008100E8002322AF00AE
:104B9000FEFF370024A2B700000120001008E60045
:104BA000F5FF3700F294BF00040020002016020039
:104BB000000000002322AF00FEFF3700D4002000D9
:104BC000241188002322AF00FEFF3700A40020003C
:104BD0002411880001002000010078000160EF002E
:104BE000CE050200000000008100E8002322AF0093
:104BF000FEFF370024A2B700F00020001008E600F6
:104C0000F5FF37000CD1BF000000FB0004002000BE
:104C100020160200000000002322AF00FEFF370034
:104C2000D4002000241188002322AF00FEFF3700AB
:104C3000A400200024118800010020000100780059
:104C40000160EF00F0050200000000008100E800B4
:104C50002322AF00FEFF370024A2B700F00020009F
:104C60001008E600F5FF37000DD1BF000000FB0083
:104C70000400200020160200000000002322AF00E4
:104C8000FEFF3700D4002000241188002322AF004B
:104C9000FEFF3700A4002000241188000CD1BF00C3
:104CA0000000FB00041020000480B900800278009E
:104CB0000DD1BF000000FB000500400004B5B700A7
:104CC00001002000010078000160EF0034060200BE
:104CD000000000008100E8002322AF00FEFF370043
:104CE00024A2B700C00020001008E600F5FF37003E
:104CF0000495BF0004002000201602000000000000
:104D00002322AF00FEFF3700D400200024118800CA
:104D10002322AF00FEFF3700A400200024118800EA
:104D20000C92BF0024A880000020E1000E00360095
:104D30000435EF0001002000010078000160EF0061
:104D400052060200000000008100E8002322AF00AC
:104D5000FEFF370024A2B700600120001008E60023
:104D6000F5FF3700760337000635EF008129210073
:104D700002002000630009008058EB00240020009E
:104D8000F4A68800DE94BF0024A880000020E10083
:104D90000C0036000695BF000635EC008002780056
:104DA0008429210004834200C4102100F3A680005E
:104DB00004804100104B7800DE34EC00C226040071
:104DC00000000000DE34EF00010020000100780048
:104DD0000160EF0076060200000000008100E8009C
:104DE0002322AF00FEFF370024A2B700900020006E
:104DF0001008E600F5FF3700812921001104E000CA
:104E0000070032002322AF00FEFF37000140900070
:104E100024E2B7002562EF008100E800F7FF3700C9
:104E20002322AF00FEFF3700D400200024118800A9
:104E30002322AF00FEFF3700A400200024118800C9
:104E40008429210033A8800084824100804AEB003D
:104E50000615F8000415F9000635EF0024A88000B7
:104E60006202420044A888000A35EF00F614E2000E
:104E70002F003A0044A880006202420044A8880043
:104E800024A880006202420084027800C41021003D
:104E900004804200104378000603FB000410200049
:104EA00004B0B9000003780024A880006302420027
:104EB00004047800C41021000400440000027800BB
:104EC000144078000000FB00060040000AB5B7005F
:104ED00001002000010078000160EF00920602004E
:104EE000000000008100E8002322AF00FEFF370031
:104EF00024A2B700A00020001008E600F5FF37004C
:104F00000A95BF00040020002016020000000000E7
:104F10002322AF00FEFF3700D400200024118800B8
:104F20002322AF00FEFF3700A400200024118800D8
:104F3000C12F210002002000FF0009008058EB0073
:104F40000815F800DE14F900649380006020E10089
:104F50001100390004003E00DE94BF00549380002D
:104F60000020E1000C0036000695BF000635EC007D
:104F700080027800C42F210004834200C410210065
:104F8000F3A6800004804100104B7800DE34EC0072
:104F9000A4270400000000000100200001007800A8
:104FA0000160EF00AE060200000000008100E80092
:104FB0002322AF00FEFF370024A2B700B00020007C
:104FC0001008E600F5FF3700C12F21001104E000B2
:104FD000070032002322AF00FEFF3700014090009F
:104FE00024E2B7002562EF008100E800F7FF3700F8
:104FF0002322AF00FEFF3700D400200024118800D8
:105000002322AF00FEFF3700A400200024118800F7
:10501000C42F210033A8800084824100804AEB0025
:105020000615F8006E12F9007032EF000635EF0039
:10503000B4A780006120E1003A003A000A15F800A8
:105040003415F9004E1C0200000000000100200091
:10505000010078000160EF00CC06020000000000B3
:105060008100E8002322AF00FEFF370024A2B70032
:10507000400020001008E600F5FF3700F694BF005E
:105080000400200020160200000000002322AF00D0
:10509000FEFF3700D4002000241188002322AF0037
:1050A000FEFF3700A400200024118800010020002A
:1050B000010078000160EF00E2060200000000003D
:1050C0008100E8002322AF00FEFF370024A2B700D2
:1050D000A00020001008E600F5FF370051A880006E
:1050E0001104E000070032002322AF00FEFF37006A
:1050F0000140900024E2B7002562EF008100E80043
:10510000F7FF37002322AF00FEFF3700D400200056
:10511000241188002322AF00FEFF3700A4002000E6
:1051200024118800B4A780006220E1003A003A0010
:105130000A15F8003415F900CE1C0200000000002A
:1051400001002000010078000160EF00CC060200A1
:10515000000000008100E8002322AF00FEFF3700BE
:1051600024A2B700400020001008E600F5FF370039
:10517000F694BF000400200020160200000000008A
:105180002322AF00FEFF3700D40020002411880046
:105190002322AF00FEFF3700A40020002411880066
:1051A00001002000010078000160EF00E20602002B
:1051B000000000008100E8002322AF00FEFF37005E
:1051C00024A2B700A00020001008E600F5FF370079
:1051D00051A880001104E000070032002322AF0034
:1051E000FEFF37000140900024E2B7002562EF0087
:1051F0008100E800F7FF37002322AF00FEFF3700F1
:10520000D4002000241188002322AF00FEFF3700C5
:10521000A40020002411880009D1A8009C2D0400BE
:105220000000000001002000010078000160EF0094
:10523000FE060200000000008100E8002322AF000B
:10524000FEFF370024A2B700000120001008E6008E
:10525000F5FF3700F294BF00040020002016020082
:10526000000000002322AF00FEFF3700D400200022
:10527000241188002322AF00FEFF3700A400200085
:10528000241188000ED1BF000000FB000410200094
:105290000480B900800278000FD1BF000000FB003D
:1052A000050040000CB5B7000100200001007800A7
:1052B0000160EF0020070200000000008100E8000C
:1052C0002322AF00FEFF370024A2B700A000200079
:1052D0001008E600F5FF37000C95BF000400200021
:1052E00020160200000000002322AF00FEFF37005E
:1052F000D4002000241188002322AF00FEFF3700D5
:10530000A4002000241188009C2D0400000000004F
:1053100001002000010078000160EF003C0702005E
:10532000000000008100E8002322AF00FEFF3700EC
:1053300024A2B700000120001008E600F5FF3700A6
:10534000F294BF00040020002016020000000000BC
:105350002322AF00FEFF3700D40020002411880074
:105360002322AF00FEFF3700A40020002411880094
:105370000ED1BF000000FB00041020000480B90023
:10538000800278000FD1BF000000FB000500400044
:105390000EB5B70001002000010078000160EF00A9
:1053A00020070200000000008100E8002322AF0077
:1053B000FEFF370024A2B700A00020001008E6007E
:1053C000F5FF37000E95BF000400200020160200F4
:1053D000000000002322AF00FEFF3700D4002000B1
:1053E000241188002322AF00FEFF3700A400200014
:1053F000241188009C2D0400000000000100200002
:10540000010078000160EF005E070200000000006C
:105410008100E8002322AF00FEFF370024A2B7007E
:10542000100120001008E600F5FF3700F294BF00DD
:105430000400200020160200000000002322AF001C
:10544000FEFF3700D4002000241188002322AF0083
:10545000FEFF3700A4002000241188000ED1BF00F9
:105460000000FB00041020000480B90080027800D6
:105470000FD1BF000000FB000500400010B5B700D1
:1054800001002000010078000160EF002007020009
:10549000000000008100E8002322AF00FEFF37007B
:1054A00024A2B700A00020001008E600F5FF370096
:1054B0001095BF000400200020160200000000002C
:1054C0002322AF00FEFF3700D40020002411880003
:1054D0002322AF00FEFF3700A40020002411880023
:1054E00009D1A8009C2D040000000000010020004C
:1054F000010078000160EF00820702000000000058
:105500008100E8002322AF00FEFF370024A2B7008D
:10551000100120001008E600F5FF3700F294BF00EC
:105520000400200020160200000000002322AF002B
:10553000FEFF3700D4002000241188002322AF0092
:10554000FEFF3700A4002000241188000100200085
:10555000010078000160EF00A607020000000000D3
:105560008100E8002322AF00FEFF370024A2B7002D
:10557000F00020001008E600F5FF37000ED1BF0054
:105580000000FB00040020002016020000000000C4
:105590002322AF00FEFF3700D40020002411880032
:1055A0002322AF00FEFF3700A40020002411880052
:1055B00001002000010078000160EF00C807020030
:1055C000000000008100E8002322AF00FEFF37004A
:1055D00024A2B700F00020001008E600F5FF370015
:1055E0000FD1BF000000FB000400200020160200C5
:1055F000000000002322AF00FEFF3700D40020008F
:10560000241188002322AF00FEFF3700A4002000F1
:10561000241188000ED1BF000000FB000410200000
:105620000480B900800278000FD1BF000000FB00A9
:105630000500400012B5B70001002000010078000D
:105640000160EF0034060200000000008100E80065
:105650002322AF00FEFF370024A2B700C0002000C5
:105660001008E600F5FF37001295BF000400200087
:1056700020160200000000002322AF00FEFF3700CA
:10568000D4002000241188002322AF00FEFF370041
:10569000A4002000241188009C2D040000000000BC
:1056A00001002000010078000160EF00EA0702001D
:1056B000000000008100E8002322AF00FEFF370059
:1056C00024A2B700F00020001008E600F5FF370024
:1056D000F294BF0004002000201602000000000029
:1056E0002322AF00FEFF3700D400200024118800E1
:1056F0002322AF00FEFF3700A40020002411880001
:1057000001002000010078000160EF00A607020000
:10571000000000008100E8002322AF00FEFF3700F8
:1057200024A2B700F00020001008E600F5FF3700C3
:105730000ED1BF000000FB00040020002016020074
:10574000000000002322AF00FEFF3700D40020003D
:10575000241188002322AF00FEFF3700A4002000A0
:105760002411880001002000010078000160EF0092
:10577000C8070200000000008100E8002322AF00FB
:10578000FEFF370024A2B700F00020001008E6005A
:10579000F5FF37000FD1BF000000FB000400200020
:1057A00020160200000000002322AF00FEFF370099
:1057B000D4002000241188002322AF00FEFF370010
:1057C000A4002000241188000ED1BF000000FB00BF
:1057D000041020000480B900800278000FD1BF00BF
:1057E0000000FB000500400014B5B70001002000D8
:1057F000010078000160EF00920602000000000046
:105800008100E8002322AF00FEFF370024A2B7008A
:10581000A00020001008E600F5FF37001495BF0037
:105820000400200020160200000000002322AF0028
:10583000FEFF3700D4002000241188002322AF008F
:10584000FEFF3700A4002000241188003475EF000B
:105850001415F8003615F9004E1D02000000000076
:105860009C2D0400000000000100200001007800D1
:105870000160EF000C080200000000008100E80059
:105880002322AF00FEFF370024A2B700F000200063
:105890001008E600F5FF3700F294BF000400200076
:1058A00020160200000000002322AF00FEFF370098
:1058B000D4002000241188002322AF00FEFF37000F
:1058C000A4002000241188000100200001007800BD
:1058D0000160EF00A6070200000000008100E80060
:1058E0002322AF00FEFF370024A2B700F000200003
:1058F0001008E600F5FF37000ED1BF000000FB00E6
:105900000400200020160200000000002322AF0047
:10591000FEFF3700D4002000241188002322AF00AE
:10592000FEFF3700A40020002411880001002000A1
:10593000010078000160EF00C807020000000000CD
:105940008100E8002322AF00FEFF370024A2B70049
:10595000F00020001008E600F5FF37000FD1BF006F
:105960000000FB00040020002016020000000000E0
:105970002322AF00FEFF3700D4002000241188004E
:105980002322AF00FEFF3700A4002000241188006E
:105990000ED1BF000000FB00041020000480B900FD
:1059A000800278000FD1BF000000FB00050040001E
:1059B00016B5B70001002000010078000160EF007B
:1059C00092060200000000008100E8002322AF00E0
:1059D000FEFF370024A2B700A00020001008E60058
:1059E000F5FF37001695BF000400200020160200C6
:1059F000000000002322AF00FEFF3700D40020008B
:105A0000241188002322AF00FEFF3700A4002000ED
:105A1000241188001615F8003415F900DA1D02006B
:105A2000000000009C2D0400000000000100200088
:105A3000010078000160EF002E0802000000000065
:105A40008100E8002322AF00FEFF370024A2B70048
:105A5000400120001008E600F5FF3700F294BF0077
:105A60000400200020160200000000002322AF00E6
:105A7000FEFF3700D4002000241188002322AF004D
:105A8000FEFF3700A4002000241188000931A9007E
:105A90006432A90001002000010078000160EF00DD
:105AA00054080200000000008100E8002322AF003B
:105AB000FEFF370024A2B700100120001008E60006
:105AC000F5FF37007832EF009C2D04000000000045
:105AD00001002000010078000160EF00740802005E
:105AE000000000008100E8002322AF00FEFF370025
:105AF00024A2B700600120001008E600F5FF37007F
:105B0000F294BF00040020002016020000000000F4
:105B10002322AF00FEFF3700D400200024118800AC
:105B20002322AF00FEFF3700A400200024118800CC
:105B30009C2D04000000000040EEA90044EEA900E6
:105B40004F047800CF0378004F037800CF0278002D
:105B5000000006007432EF00010020000100780010
:105B60000160EF00480A0200000000008100E80028
:105B70002322AF00FEFF370024A2B700C0002000A0
:105B80001008E600F5FF370061A680001104E00070
:105B9000070032002322AF00FEFF370001409000D3
:105BA00024E2B7002562EF008100E800F7FF37002C
:105BB00061A680001104E000070032005322AF000C
:105BC000FEFF37000140900054E2B7005562EF003D
:105BD0008100E800F7FF3700DE34EF002C130200ED
:105BE000000000004213020000000000D2B4B70021
:105BF0007412E2000F003A0084A680006020E100E9
:105C00000C00390004003E00D294BF0074A680004E
:105C10000020E100070036005A1E020000000000CC
:105C20004213020000000000D2B4B700F82D0400B7
:105C30000000000074D2BF0000E0B70000000600C2
:105C4000B194800002002000010009008058EB00A0
:105C50009612F8007614F90071A680001104E00095
:105C600008003200811F780001027800144078009B
:105C7000DE12020000000000CF0078008100E80082
:105C8000F6FF37007632EF000100200001007800B7
:105C90000160EF00620A0200000000008100E800DD
:105CA0002322AF00FEFF370024A2B700100120001E
:105CB0001008E600F5FF370061A680001104E0003F
:105CC000070032002322AF00FEFF370001409000A2
:105CD00024E2B7002562EF008100E800F7FF3700FB
:105CE00061A680001104E000070032005322AF00DB
:105CF000FEFF37000140900054E2B7005562EF000C
:105D00008100E800F7FF3700DE34EF002C130200BB
:105D1000000000004213020000000000D4B4B700ED
:105D20007612E2000F003A0094A680006020E100A5
:105D30000C00390004003E00D494BF0084A680000B
:105D40000020E100070036005A1E0200000000009B
:105D50004213020000000000D4B4B700902E0400EB
:105D60000000000076D2BF0000E0B700000006008F
:105D7000851F7800861F78007834EF00840C20009F
:105D800064A6880024120200000000007AB4B70064
:105D90004401200064A688002412020000000000D4
:105DA0007CB4B700D1A380000200200001000900EC
:105DB0008058EB00E1A380000200200001000900F0
:105DC0008058EB007892BF000080B20007003200DC
:105DD0001080B2004B0032003080B2006C00320004
:105DE0001080B20058013200F50237004300200055
:105DF00002002000E1472100831F780002007800A4
:105E0000820C020000000000CF017800805878006A
:105E10000201E8008301E9004220AE00F6FF3700EE
:105E2000E447210064A68800047D200074A6880051
:105E3000D034EF00AA2D0200000000000100200075
:105E4000010078000160EF00920C020000000000E9
:105E50008100E8002322AF00FEFF370024A2B70034
:105E6000B00020001008E600F5FF3700D1A3800045
:105E700002002000010009008058EB007A14F800AD
:105E80007614F90001002000010078000160EF00A5
:105E9000AC0C0200000000008100E800811F7800C7
:105EA000801F78004F007800DE1202000000000022
:105EB000CF007800300020001008E600F2FF370025
:105EC0007A14F800CC14F9008438210074A68800F4
